{
	"struct.sol": {
		"Testfunder": {
			"abi": [
				{
					"constant": false,
					"inputs": [],
					"name": "newFunder",
					"outputs": [],
					"payable": false,
					"stateMutability": "nonpayable",
					"type": "function"
				}
			],
			"devdoc": {
				"methods": {}
			},
			"evm": {
				"assembly": "    /* \"struct.sol\":25:229  contract Testfunder{... */\n  mstore(0x40, 0x80)\n  callvalue\n    /* \"--CODEGEN--\":8:17   */\n  dup1\n    /* \"--CODEGEN--\":5:7   */\n  iszero\n  tag_1\n  jumpi\n    /* \"--CODEGEN--\":30:31   */\n  0x0\n    /* \"--CODEGEN--\":27:28   */\n  dup1\n    /* \"--CODEGEN--\":20:32   */\n  revert\n    /* \"--CODEGEN--\":5:7   */\ntag_1:\n    /* \"struct.sol\":25:229  contract Testfunder{... */\n  pop\n  dataSize(sub_0)\n  dup1\n  dataOffset(sub_0)\n  0x0\n  codecopy\n  0x0\n  return\nstop\n\nsub_0: assembly {\n        /* \"struct.sol\":25:229  contract Testfunder{... */\n      mstore(0x40, 0x80)\n      jumpi(tag_1, lt(calldatasize, 0x4))\n      calldataload(0x0)\n      0x100000000000000000000000000000000000000000000000000000000\n      swap1\n      div\n      0xffffffff\n      and\n      dup1\n      0x44b1c433\n      eq\n      tag_2\n      jumpi\n    tag_1:\n      0x0\n      dup1\n      revert\n        /* \"struct.sol\":121:227  function newFunder() public {... */\n    tag_2:\n      callvalue\n        /* \"--CODEGEN--\":8:17   */\n      dup1\n        /* \"--CODEGEN--\":5:7   */\n      iszero\n      tag_3\n      jumpi\n        /* \"--CODEGEN--\":30:31   */\n      0x0\n        /* \"--CODEGEN--\":27:28   */\n      dup1\n        /* \"--CODEGEN--\":20:32   */\n      revert\n        /* \"--CODEGEN--\":5:7   */\n    tag_3:\n        /* \"struct.sol\":121:227  function newFunder() public {... */\n      pop\n      tag_4\n      jump(tag_5)\n    tag_4:\n      stop\n    tag_5:\n        /* \"struct.sol\":159:194  Funder({addr:msg.sender,amount:20}) */\n      0x40\n      dup1\n      mload\n      swap1\n      dup2\n      add\n      0x40\n      mstore\n      dup1\n        /* \"struct.sol\":172:182  msg.sender */\n      caller\n        /* \"struct.sol\":159:194  Funder({addr:msg.sender,amount:20}) */\n      0xffffffffffffffffffffffffffffffffffffffff\n      and\n      dup2\n      mstore\n      0x20\n      add\n        /* \"struct.sol\":190:192  20 */\n      0x14\n        /* \"struct.sol\":159:194  Funder({addr:msg.sender,amount:20}) */\n      dup2\n      mstore\n      pop\n      pop\n        /* \"struct.sol\":121:227  function newFunder() public {... */\n      jump\t// out\n\n    auxdata: 0xa165627a7a72305820135382de31abffe75f5c931b9752b673ea7802fa2208202b7bf08f04a6127a330029\n}\n",
				"bytecode": {
					"linkReferences": {},
					"object": "6080604052348015600f57600080fd5b5060b38061001e6000396000f300608060405260043610603f576000357c0100000000000000000000000000000000000000000000000000000000900463ffffffff16806344b1c433146044575b600080fd5b348015604f57600080fd5b5060566058565b005b60408051908101604052803373ffffffffffffffffffffffffffffffffffffffff1681526020016014815250505600a165627a7a72305820135382de31abffe75f5c931b9752b673ea7802fa2208202b7bf08f04a6127a330029",
					"opcodes": "PUSH1 0x80 PUSH1 0x40 MSTORE CALLVALUE DUP1 ISZERO PUSH1 0xF JUMPI PUSH1 0x0 DUP1 REVERT JUMPDEST POP PUSH1 0xB3 DUP1 PUSH2 0x1E PUSH1 0x0 CODECOPY PUSH1 0x0 RETURN STOP PUSH1 0x80 PUSH1 0x40 MSTORE PUSH1 0x4 CALLDATASIZE LT PUSH1 0x3F JUMPI PUSH1 0x0 CALLDATALOAD PUSH29 0x100000000000000000000000000000000000000000000000000000000 SWAP1 DIV PUSH4 0xFFFFFFFF AND DUP1 PUSH4 0x44B1C433 EQ PUSH1 0x44 JUMPI JUMPDEST PUSH1 0x0 DUP1 REVERT JUMPDEST CALLVALUE DUP1 ISZERO PUSH1 0x4F JUMPI PUSH1 0x0 DUP1 REVERT JUMPDEST POP PUSH1 0x56 PUSH1 0x58 JUMP JUMPDEST STOP JUMPDEST PUSH1 0x40 DUP1 MLOAD SWAP1 DUP2 ADD PUSH1 0x40 MSTORE DUP1 CALLER PUSH20 0xFFFFFFFFFFFFFFFFFFFFFFFFFFFFFFFFFFFFFFFF AND DUP2 MSTORE PUSH1 0x20 ADD PUSH1 0x14 DUP2 MSTORE POP POP JUMP STOP LOG1 PUSH6 0x627A7A723058 KECCAK256 SGT MSTORE8 DUP3 0xde BALANCE 0xab SELFDESTRUCT 0xe7 0x5f 0x5c SWAP4 SHL SWAP8 MSTORE 0xb6 PUSH20 0xEA7802FA2208202B7BF08F04A6127A3300290000 "
				},
				"gasEstimates": {
					"creation": {
						"codeDepositCost": "35800",
						"executionCost": "87",
						"totalCost": "35887"
					},
					"external": {
						"newFunder()": "202"
					}
				},
				"methodIdentifiers": {
					"newFunder()": "44b1c433"
				}
			},
			"userdoc": {
				"methods": {}
			}
		}
	}
}