{
	"global_api.sol": {
		"TestApi": {
			"abi": [
				{
					"constant": false,
					"inputs": [],
					"name": "pay",
					"outputs": [
						{
							"name": "",
							"type": "uint256"
						}
					],
					"payable": true,
					"stateMutability": "payable",
					"type": "function"
				},
				{
					"constant": true,
					"inputs": [],
					"name": "h",
					"outputs": [
						{
							"name": "",
							"type": "address"
						}
					],
					"payable": false,
					"stateMutability": "view",
					"type": "function"
				},
				{
					"inputs": [],
					"payable": true,
					"stateMutability": "payable",
					"type": "constructor"
				}
			],
			"devdoc": {
				"methods": {}
			},
			"evm": {
				"assembly": "    /* \"global_api.sol\":25:686  contract TestApi{... */\n  mstore(0x40, 0x80)\n  dataSize(sub_0)\n  dup1\n  dataOffset(sub_0)\n  0x0\n  codecopy\n  0x0\n  return\nstop\n\nsub_0: assembly {\n        /* \"global_api.sol\":25:686  contract TestApi{... */\n      mstore(0x40, 0x80)\n      jumpi(tag_1, lt(calldatasize, 0x4))\n      calldataload(0x0)\n      0x100000000000000000000000000000000000000000000000000000000\n      swap1\n      div\n      0xffffffff\n      and\n      dup1\n      0x1b9265b8\n      eq\n      tag_2\n      jumpi\n      dup1\n      0xb8c9d365\n      eq\n      tag_3\n      jumpi\n    tag_1:\n      0x0\n      dup1\n      revert\n        /* \"global_api.sol\":607:684  function pay() public payable returns (uint){... */\n    tag_2:\n      tag_4\n      jump(tag_5)\n    tag_4:\n      mload(0x40)\n      dup1\n      dup3\n      dup2\n      mstore\n      0x20\n      add\n      swap2\n      pop\n      pop\n      mload(0x40)\n      dup1\n      swap2\n      sub\n      swap1\n      return\n        /* \"global_api.sol\":77:600  function h() public view returns (address){... */\n    tag_3:\n      callvalue\n        /* \"--CODEGEN--\":8:17   */\n      dup1\n        /* \"--CODEGEN--\":5:7   */\n      iszero\n      tag_6\n      jumpi\n        /* \"--CODEGEN--\":30:31   */\n      0x0\n        /* \"--CODEGEN--\":27:28   */\n      dup1\n        /* \"--CODEGEN--\":20:32   */\n      revert\n        /* \"--CODEGEN--\":5:7   */\n    tag_6:\n        /* \"global_api.sol\":77:600  function h() public view returns (address){... */\n      pop\n      tag_7\n      jump(tag_8)\n    tag_7:\n      mload(0x40)\n      dup1\n      dup3\n      0xffffffffffffffffffffffffffffffffffffffff\n      and\n      0xffffffffffffffffffffffffffffffffffffffff\n      and\n      dup2\n      mstore\n      0x20\n      add\n      swap2\n      pop\n      pop\n      mload(0x40)\n      dup1\n      swap2\n      sub\n      swap1\n      return\n        /* \"global_api.sol\":607:684  function pay() public payable returns (uint){... */\n    tag_5:\n        /* \"global_api.sol\":646:650  uint */\n      0x0\n        /* \"global_api.sol\":668:677  msg.value */\n      callvalue\n        /* \"global_api.sol\":661:677  return msg.value */\n      swap1\n      pop\n        /* \"global_api.sol\":607:684  function pay() public payable returns (uint){... */\n      swap1\n      jump\t// out\n        /* \"global_api.sol\":77:600  function h() public view returns (address){... */\n    tag_8:\n        /* \"global_api.sol\":111:118  address */\n      0x0\n        /* \"global_api.sol\":136:146  msg.sender */\n      caller\n        /* \"global_api.sol\":129:146  return msg.sender */\n      swap1\n      pop\n        /* \"global_api.sol\":77:600  function h() public view returns (address){... */\n      swap1\n      jump\t// out\n\n    auxdata: 0xa165627a7a7230582061b5c487336f988d483aa61c3758adaae7b862e790688e338fc943ccca6cb7f10029\n}\n",
				"bytecode": {
					"linkReferences": {},
					"object": "608060405260fa806100126000396000f3006080604052600436106049576000357c0100000000000000000000000000000000000000000000000000000000900463ffffffff1680631b9265b814604e578063b8c9d36514606a575b600080fd5b605460be565b6040518082815260200191505060405180910390f35b348015607557600080fd5b50607c60c6565b604051808273ffffffffffffffffffffffffffffffffffffffff1673ffffffffffffffffffffffffffffffffffffffff16815260200191505060405180910390f35b600034905090565b6000339050905600a165627a7a7230582061b5c487336f988d483aa61c3758adaae7b862e790688e338fc943ccca6cb7f10029",
					"opcodes": "PUSH1 0x80 PUSH1 0x40 MSTORE PUSH1 0xFA DUP1 PUSH2 0x12 PUSH1 0x0 CODECOPY PUSH1 0x0 RETURN STOP PUSH1 0x80 PUSH1 0x40 MSTORE PUSH1 0x4 CALLDATASIZE LT PUSH1 0x49 JUMPI PUSH1 0x0 CALLDATALOAD PUSH29 0x100000000000000000000000000000000000000000000000000000000 SWAP1 DIV PUSH4 0xFFFFFFFF AND DUP1 PUSH4 0x1B9265B8 EQ PUSH1 0x4E JUMPI DUP1 PUSH4 0xB8C9D365 EQ PUSH1 0x6A JUMPI JUMPDEST PUSH1 0x0 DUP1 REVERT JUMPDEST PUSH1 0x54 PUSH1 0xBE JUMP JUMPDEST PUSH1 0x40 MLOAD DUP1 DUP3 DUP2 MSTORE PUSH1 0x20 ADD SWAP2 POP POP PUSH1 0x40 MLOAD DUP1 SWAP2 SUB SWAP1 RETURN JUMPDEST CALLVALUE DUP1 ISZERO PUSH1 0x75 JUMPI PUSH1 0x0 DUP1 REVERT JUMPDEST POP PUSH1 0x7C PUSH1 0xC6 JUMP JUMPDEST PUSH1 0x40 MLOAD DUP1 DUP3 PUSH20 0xFFFFFFFFFFFFFFFFFFFFFFFFFFFFFFFFFFFFFFFF AND PUSH20 0xFFFFFFFFFFFFFFFFFFFFFFFFFFFFFFFFFFFFFFFF AND DUP2 MSTORE PUSH1 0x20 ADD SWAP2 POP POP PUSH1 0x40 MLOAD DUP1 SWAP2 SUB SWAP1 RETURN JUMPDEST PUSH1 0x0 CALLVALUE SWAP1 POP SWAP1 JUMP JUMPDEST PUSH1 0x0 CALLER SWAP1 POP SWAP1 JUMP STOP LOG1 PUSH6 0x627A7A723058 KECCAK256 PUSH2 0xB5C4 DUP8 CALLER PUSH16 0x988D483AA61C3758ADAAE7B862E79068 DUP15 CALLER DUP16 0xc9 NUMBER 0xcc 0xca PUSH13 0xB7F10029000000000000000000 "
				},
				"gasEstimates": {
					"creation": {
						"codeDepositCost": "50000",
						"executionCost": "75",
						"totalCost": "50075"
					},
					"external": {
						"h()": "235",
						"pay()": "177"
					}
				},
				"methodIdentifiers": {
					"h()": "b8c9d365",
					"pay()": "1b9265b8"
				}
			},
			"userdoc": {
				"methods": {}
			}
		}
	}
}